MPASM 5.83              NEWPIC_8B_SIMPLE.ASM   4-18-2019  18:37:54         PAGE  1


LOC  OBJECT CODE     LINE SOURCE TEXT
  VALUE

                      00001     list P = PIC12F752, r=dec
                      00002     #include "p12F752.inc"
                      00001         LIST
                      00002 
                      00003 ;==========================================================================
                      00004 ; Build date : Jan 21 2019
                      00005 ;  MPASM PIC12F752 processor include
                      00006 ; 
                      00007 ;  (c) Copyright 1999-2019 Microchip Technology, All rights reserved
                      00008 ;==========================================================================
                      00009 
                      00638         LIST
2007   3FE6           00003     __config(_CP_OFF & _WDTE_OFF & _PWRTE_ON & _FOSC0_INT)    
                      00004 
                      00005 ;
                      00006 ; definitions
                      00007 ;
                      00008     
  00000040            00009 Counter equ 0x40
  00000041            00010 ShiftRegister equ 0x41
  00000042            00011 XMIT_Flag equ 0x42
  00000043            00012 REC_Flag equ 0x43
                      00013 
                      00014     org 0
0000   2???           00015     goto Main
                      00016     org 5
                      00017  
0005                  00018 Main:
0005   2???           00019     call Setup ;Setup stuff
0006   3000           00020     movlw 0
                      00021     
0007                  00022 MainLoop:    
                      00023     
0007   2???           00024     call StartTransmit
0008   3E01           00025     addlw 1 ; increment W to change the val transmitted
0009   2???           00026     goto MainLoop
                      00027     
                      00028 
                      00029  
000A                  00030 Setup: ;Set up HLTMR1, PortA0, and interrupts
                      00031     ;Init Ports
000A   1683 1703      00032     banksel ANSELA
Message[302]: Register in operand not in bank 0.  Ensure that bank bits are correct.
000C   1085           00033     bcf ANSELA,1 ; Setting RA1,4 to be digital 
Message[302]: Register in operand not in bank 0.  Ensure that bank bits are correct.
000D   1205           00034     bcf ANSELA,4
000E   1283 1703      00035     banksel LATA ; Set output line HI right away;    bsf LATA,1
0010   1683 1303      00036     banksel TRISA ; Set Pin 1 to be output, Pin 4 input
Message[302]: Register in operand not in bank 0.  Ensure that bank bits are correct.
0012   1085           00037     bcf TRISA,1
Message[302]: Register in operand not in bank 0.  Ensure that bank bits are correct.
0013   1605           00038     bsf TRISA,4
                      00039     ;Init  H1TMR1
MPASM 5.83              NEWPIC_8B_SIMPLE.ASM   4-18-2019  18:37:54         PAGE  2


LOC  OBJECT CODE     LINE SOURCE TEXT
  VALUE

0014   1283 1703      00040     banksel HLTPR1
0016   30CE           00041     movlw 206 ; Inserting timer period value for baud rate
Message[302]: Register in operand not in bank 0.  Ensure that bank bits are correct.
0017   0094           00042     movwf HLTPR1
0018   3001           00043     movlw 0x01 ; Set Post scale 4, Timer off, Prescale 1
Message[302]: Register in operand not in bank 0.  Ensure that bank bits are correct.
0019   0095           00044     movwf HLT1CON0
001A   3018           00045     movlw b'00011000' ;Reserved input source, no effect of RE or FE
Message[302]: Register in operand not in bank 0.  Ensure that bank bits are correct.
001B   0096           00046     movwf HLT1CON1
                      00047     ;Init Interrupts
001C   1283 1303      00048     banksel INTCON ; Enabling interrupts
001E   178B           00049     bsf INTCON,GIE ;global int set
001F   170B           00050     bsf INTCON,PEIE ;peripheral int set
0020   1683 1303      00051     banksel PIE1
Message[302]: Register in operand not in bank 0.  Ensure that bank bits are correct.
0022   150C           00052     bsf PIE1,HLTMR1IE ;Enables Hardware timer int
                      00053     
                      00054     ;Clear flags now
0023   1283 1303      00055     banksel XMIT_Flag 
0025   01C2           00056     clrf XMIT_Flag
0026   01C3           00057     clrf REC_Flag
0027   0008           00058     return
                      00059 
0028                  00060 StartTransmit:
0028   1283 1303      00061     banksel XMIT_Flag
002A   1C42           00062     btfss XMIT_Flag,0 ;If still transmitting, don't transmit new byte
002B   2???           00063     goto MainLoop
                      00064     
002C   00C1           00065     movwf ShiftRegister ;Copy xmit byte to SR
002D   300A           00066     movlw 10 ; Set counter to 10
002E   00C0           00067     movwf Counter
002F   1442           00068     bsf XMIT_Flag,0 ;Set Transmit flag
                      00069     
0030   1283 1703      00070     banksel HLT1CON0 ; Turn on hardware timer (interrupts will fire)
Message[302]: Register in operand not in bank 0.  Ensure that bank bits are correct.
0032   1515           00071     bsf HLT1CON0,H1ON 
0033   1283 1703      00072     banksel LATA ; Set XMIT line LO (Start bit)
Message[302]: Register in operand not in bank 0.  Ensure that bank bits are correct.
0035   1085           00073     bcf LATA,1
0036   1283 1303      00074     banksel PIR1
0038   018C           00075     clrf PIR1 ; clear pend local interrupts (inc. HLTMR1F)
                      00076     
0039   0008           00077     return
                      00078     
3FE6                  00079     end
MPASM 5.83              NEWPIC_8B_SIMPLE.ASM   4-18-2019  18:37:54         PAGE  3


SYMBOL TABLE
  LABEL                             VALUE 

ADCON0                            0000001E
ADCON1                            0000001F
ADCS0                             00000004
ADCS1                             00000005
ADCS2                             00000006
ADFM                              00000007
ADIE                              00000006
ADIF                              00000006
ADON                              00000000
ADRES                             0000001C
ADRESH                            0000001D
ADRESL                            0000001C
ANSA0                             00000000
ANSA1                             00000001
ANSA2                             00000002
ANSA4                             00000004
ANSA5                             00000005
ANSELA                            00000185
APFCON                            00000188
C                                 00000000
C1CON0                            0000009D
C1CON1                            0000009E
C1HYS                             00000001
C1IE                              00000004
C1IF                              00000004
C1INTN                            00000006
C1INTP                            00000007
C1NCH0                            00000000
C1OE                              00000005
C1ON                              00000007
C1OUT                             00000006
C1PCH0                            00000004
C1PCH1                            00000005
C1POL                             00000004
C1SP                              00000002
C1SYNC                            00000000
C1ZLF                             00000003
C2CON0                            0000009B
C2CON1                            0000009C
C2HYS                             00000001
C2IE                              00000005
C2IF                              00000005
C2INTN                            00000006
C2INTP                            00000007
C2NCH0                            00000000
C2OE                              00000005
C2ON                              00000007
C2OUT                             00000006
C2PCH0                            00000004
C2PCH1                            00000005
C2POL                             00000004
C2SP                              00000002
C2SYNC                            00000000
MPASM 5.83              NEWPIC_8B_SIMPLE.ASM   4-18-2019  18:37:54         PAGE  4


SYMBOL TABLE
  LABEL                             VALUE 

C2ZLF                             00000003
CCP1CON                           00000015
CCP1IE                            00000000
CCP1IF                            00000000
CCP1M0                            00000000
CCP1M1                            00000001
CCP1M2                            00000002
CCP1M3                            00000003
CCPR1                             00000013
CCPR1H                            00000014
CCPR1L                            00000013
CHS0                              00000002
CHS1                              00000003
CHS2                              00000004
CHS3                              00000005
CM1CON0                           0000009D
CM1CON1                           0000009E
CM2CON0                           0000009B
CM2CON1                           0000009C
CMOUT                             0000009F
COG1ASD                           00000197
COG1BLK                           00000193
COG1CON0                          00000195
COG1CON1                          00000196
COG1DB                            00000194
COG1FSEL                          00000002
COG1IE                            00000002
COG1IF                            00000002
COG1O0SEL                         00000000
COG1O1SEL                         00000001
COG1PH                            00000192
Counter                           00000040
DACCON0                           00000091
DACCON1                           00000092
DACEN                             00000007
DACOE                             00000005
DACPSS0                           00000002
DACR0                             00000000
DACR1                             00000001
DACR2                             00000002
DACR3                             00000003
DACR4                             00000004
DACRNG                            00000006
DC                                00000001
DC1B0                             00000004
DC1B1                             00000005
F                                 00000001
FSR                               00000004
FVRBUFEN                          00000005
FVRBUFSS                          00000004
FVRCON                            00000090
FVREN                             00000007
FVRRDY                            00000006
MPASM 5.83              NEWPIC_8B_SIMPLE.ASM   4-18-2019  18:37:54         PAGE  5


SYMBOL TABLE
  LABEL                             VALUE 

G1ARSEN                           00000006
G1ASDE                            00000007
G1ASDL0                           00000004
G1ASDL1                           00000005
G1ASDSC1                          00000001
G1ASDSC2                          00000002
G1ASDSFLT                         00000000
G1ASDSHLT                         00000003
G1BDR0                            00000004
G1BDR1                            00000005
G1BDR2                            00000006
G1BDR3                            00000007
G1BLKF0                           00000000
G1BLKF1                           00000001
G1BLKF2                           00000002
G1BLKF3                           00000003
G1BLKR0                           00000004
G1BLKR1                           00000005
G1BLKR2                           00000006
G1BLKR3                           00000007
G1CS0                             00000000
G1CS1                             00000001
G1DBF0                            00000000
G1DBF1                            00000001
G1DBF2                            00000002
G1DBF3                            00000003
G1EN                              00000007
G1FS0                             00000003
G1FS1                             00000004
G1FS2                             00000005
G1FSIM                            00000007
G1LD                              00000002
G1OE0                             00000005
G1OE1                             00000006
G1PH0                             00000000
G1PH1                             00000001
G1PH2                             00000002
G1PH3                             00000003
G1POL0                            00000003
G1POL1                            00000004
G1RS0                             00000000
G1RS1                             00000001
G1RS2                             00000002
G1RSIM                            00000006
GIE                               00000007
GO_NOT_DONE                       00000001
H1CKPS0                           00000000
H1CKPS1                           00000001
H1ERS0                            00000002
H1ERS1                            00000003
H1ERS2                            00000004
H1FEREN                           00000001
H1ON                              00000002
MPASM 5.83              NEWPIC_8B_SIMPLE.ASM   4-18-2019  18:37:54         PAGE  6


SYMBOL TABLE
  LABEL                             VALUE 

H1OUTPS0                          00000003
H1OUTPS1                          00000004
H1OUTPS2                          00000005
H1OUTPS3                          00000006
H1REREN                           00000000
HLT1CON0                          00000115
HLT1CON1                          00000116
HLTMR1                            00000113
HLTMR1IE                          00000002
HLTMR1IF                          00000002
HLTPR1                            00000114
HTS                               00000002
INDF                              00000000
INTCON                            0000000B
INTE                              00000004
INTEDG                            00000006
INTF                              00000001
IOCAF                             00000008
IOCAF0                            00000000
IOCAF1                            00000001
IOCAF2                            00000002
IOCAF3                            00000003
IOCAF4                            00000004
IOCAF5                            00000005
IOCAN                             00000108
IOCAN0                            00000000
IOCAN1                            00000001
IOCAN2                            00000002
IOCAN3                            00000003
IOCAN4                            00000004
IOCAN5                            00000005
IOCAP                             00000088
IOCAP0                            00000000
IOCAP1                            00000001
IOCAP2                            00000002
IOCAP3                            00000003
IOCAP4                            00000004
IOCAP5                            00000005
IOCIE                             00000003
IOCIF                             00000000
IRCF0                             00000004
IRCF1                             00000005
IRP                               00000007
LATA                              00000105
LATA0                             00000000
LATA1                             00000001
LATA2                             00000002
LATA4                             00000004
LATA5                             00000005
LTS                               00000001
MCOUT                             0000009F
MCOUT1                            00000000
MCOUT2                            00000001
MPASM 5.83              NEWPIC_8B_SIMPLE.ASM   4-18-2019  18:37:54         PAGE  7


SYMBOL TABLE
  LABEL                             VALUE 

Main                              00000005
MainLoop                          00000007
NOT_BOR                           00000000
NOT_PD                            00000003
NOT_POR                           00000001
NOT_RAPU                          00000007
NOT_T1SYNC                        00000002
NOT_TO                            00000004
OPTION_REG                        00000081
OSCCON                            0000008F
OSCTUNE                           00000189
PCL                               00000002
PCLATH                            0000000A
PCON                              0000010F
PEIE                              00000006
PIE1                              0000008C
PIE2                              0000008D
PIR1                              0000000C
PIR2                              0000000D
PMADR                             0000018E
PMADRH                            0000018F
PMADRL                            0000018E
PMCON1                            0000018C
PMCON2                            0000018D
PMDAT                             00000190
PMDATH                            00000191
PMDATL                            00000190
PORTA                             00000005
PR2                               00000111
PS0                               00000000
PS1                               00000001
PS2                               00000002
PSA                               00000003
RA0                               00000000
RA1                               00000001
RA2                               00000002
RA3                               00000003
RA4                               00000004
RA5                               00000005
RD                                00000000
REC_Flag                          00000043
RP0                               00000005
RP1                               00000006
SLRA0                             00000000
SLRA2                             00000002
SLRCONA                           0000010D
STATUS                            00000003
Setup                             0000000A
ShiftRegister                     00000041
StartTransmit                     00000028
T0CS                              00000005
T0IE                              00000005
T0IF                              00000002
MPASM 5.83              NEWPIC_8B_SIMPLE.ASM   4-18-2019  18:37:54         PAGE  8


SYMBOL TABLE
  LABEL                             VALUE 

T0SE                              00000004
T1CKPS0                           00000004
T1CKPS1                           00000005
T1CON                             00000011
T1GCON                            00000012
T1GGO                             00000003
T1GGO_NOT_DONE                    00000003
T1GPOL                            00000006
T1GSEL                            00000004
T1GSPM                            00000004
T1GSS0                            00000000
T1GSS1                            00000001
T1GTM                             00000005
T1GVAL                            00000002
T2CKPS0                           00000000
T2CKPS1                           00000001
T2CON                             00000112
T2OUTPS0                          00000003
T2OUTPS1                          00000004
T2OUTPS2                          00000005
T2OUTPS3                          00000006
TMR0                              00000001
TMR1                              0000000F
TMR1CS0                           00000006
TMR1CS1                           00000007
TMR1GE                            00000007
TMR1GIE                           00000007
TMR1GIF                           00000007
TMR1H                             00000010
TMR1IE                            00000000
TMR1IF                            00000000
TMR1L                             0000000F
TMR1ON                            00000000
TMR2                              00000110
TMR2IE                            00000001
TMR2IF                            00000001
TMR2ON                            00000002
TRISA                             00000085
TRISA0                            00000000
TRISA1                            00000001
TRISA2                            00000002
TRISA3                            00000003
TRISA4                            00000004
TRISA5                            00000005
TUN0                              00000000
TUN1                              00000001
TUN2                              00000002
TUN3                              00000003
TUN4                              00000004
VCFG                              00000006
W                                 00000000
WPUA                              0000010C
WPUA0                             00000000
MPASM 5.83              NEWPIC_8B_SIMPLE.ASM   4-18-2019  18:37:54         PAGE  9


SYMBOL TABLE
  LABEL                             VALUE 

WPUA1                             00000001
WPUA2                             00000002
WPUA3                             00000003
WPUA4                             00000004
WPUA5                             00000005
WR                                00000001
WREN                              00000002
XMIT_Flag                         00000042
Z                                 00000002
_BOREN_DIS                        00003CFF
_BOREN_EN                         00003FFF
_BOREN_SLEEP_DIS                  00003EFF
_CLKOUTEN_OFF                     00003FFF
_CLKOUTEN_ON                      00002FFF
_CONFIG                           00002007
_CP_OFF                           00003FFF
_CP_ON                            00003FBF
_DEVID1                           00002006
_FOSC0_EC                         00003FFF
_FOSC0_INT                        00003FFE
_IDLOC0                           00002000
_IDLOC1                           00002001
_IDLOC2                           00002002
_IDLOC3                           00002003
_MCLRE_OFF                        00003FDF
_MCLRE_ON                         00003FFF
_PWRTE_OFF                        00003FFF
_PWRTE_ON                         00003FEF
_WDTE_OFF                         00003FF7
_WDTE_ON                          00003FFF
_WRT_ALL                          000033FF
_WRT_FOURTH                       00003BFF
_WRT_HALF                         000037FF
_WRT_OFF                          00003FFF
__12F752                          00000001

Errors   :     0
Warnings :     0 reported,     0 suppressed
Messages :    10 reported,     0 suppressed

